:020000040800F2
:10000000000002203D1B0008051900080B1900081C
:1000100011190008171900081D1900080000000038
:10002000000000000000000000000000231900088C
:1000300031190008000000003F1900084D190008A0
:100040008D1B00088D1B00088D1B00088D1B0008F0
:100050008D1B0008591900088D1B00088D1B000816
:100060008D1B00088D1B00088D1B00088D1B0008D0
:100070008D1B00088D1B00088D1B00088D1B0008C0
:100080008D1B00088D1B0008691900088D1B0008D6
:100090007D1900088D1B00088D1B00088D1B0008B2
:1000A0008D1B00088D1B00088D1B00088D1B000890
:1000B0008D1B00088D1B00088D1B00088D1B000880
:1000C0008D1B00088D1B00088D1B00088D1B000870
:1000D0008D1B00088D1B00088D1B00088D1B000860
:1000E0008D1B00088D1B00088D1B00088D1B000850
:1000F0008D1B00088D1B00088D1B00088D1B000840
:100100008D1B00088D1B00088D1B00088D1B00082F
:100110008D1B00088D1B00088D1B00088D1B00081F
:10012000911900088D1B00088D1B00088D1B00080D
:100130008D1B000800000000000000008D1B00085F
:100140008D1B0008A51900088D1B00088D1B0008D9
:100150008D1B00088D1B00088D1B00088D1B0008DF
:100160008D1B00088D1B00088D1B00088D1B0008CF
:100170008D1B00088D1B000800000000000000001F
:080180008D1B00088D1B000817
:1001900010B5054C237833B9044B13B10448AFF3C1
:1001A00000800123237010BD90000020000000009B
:1001B0009C6D000808B5034B1BB103490348AFF31E
:1001C000008008BD00000000940000209C6D000825
:1001D00001F0FF01102A2BDB10F0070F08D010F8F8
:1001E000013B013A8B422DD010F0070F42B3F6D1FC
:1001F000F0B441EA012141EA014122F007047FF015
:1002000000070023F0E80256083C85EA010586EA6B
:10021000010685FA47F5A3FA87F586FA47F6A5FAA7
:1002200087F68EB9EED1F0BC01F0FF0102F00702B3
:1002300032B110F8013B013A83EA010313B1F8D15E
:100240000020704701387047002D06BF354603383F
:10025000073815F0010F07D1013015F4807F02BF78
:10026000013015F4C03F0130F0BC0138704700BFC9
:1002700081F0004102E000BF83F0004330B54FEA57
:1002800041044FEA430594EA050F08BF90EA020FC4
:100290001FBF54EA000C55EA020C7FEA645C7FEA57
:1002A000655C00F0E2804FEA5454D4EB5555B8BF7A
:1002B0006D420CDD2C4480EA020281EA030382EAEB
:1002C000000083EA010180EA020281EA0303362D7D
:1002D00088BF30BD11F0004F4FEA01314FF4801C50
:1002E0004CEA113102D0404261EB410113F0004F62
:1002F0004FEA03334CEA133302D0524263EB430319
:1003000094EA050F00F0A780A4F10104D5F1200EB6
:100310000DDB02FA0EFC22FA05F2801841F1000111
:1003200003FA0EF2801843FA05F359410EE0A5F1E5
:1003300020050EF1200E012A03FA0EFC28BF4CF016
:10034000020C43FA05F3C01851EBE37101F00045CC
:1003500007D54FF0000EDCF1000C7EEB00006EEBD9
:100360000101B1F5801F1BD3B1F5001F0CD3490863
:100370005FEA30004FEA3C0C04F101044FEA4452BA
:1003800012F5800F80F09A80BCF1004F08BF5FEA41
:10039000500C50F1000041EB045141EA050130BD21
:1003A0005FEA4C0C404141EB0101013C28BFB1F533
:1003B000801FE9D291F0000F04BF01460020B1FA7E
:1003C00081F308BF2033A3F10B03B3F120020CDA51
:1003D0000C3208DD02F1140CC2F10C0201FA0CF02F
:1003E00021FA02F10CE002F11402D8BFC2F1200C94
:1003F00001FA02F120FA0CFCDCBF41EA0C0190404A
:10040000E41AA2BF01EB0451294330BD6FEA040492
:100410001F3C1CDA0C340EDC04F11404C4F120027D
:1004200020FA04F001FA02F340EA030021FA04F38F
:1004300045EA030130BDC4F10C04C4F1200220FAE6
:1004400002F001FA04F340EA0300294630BD21FA24
:1004500004F0294630BD94F0000F83F4801306BFEA
:1004600081F480110134013D4EE77FEA645C18BFDE
:100470007FEA655C29D094EA050F08BF90EA020F75
:1004800005D054EA000C04BF1946104630BD91EA6D
:10049000030F1EBF0021002030BD5FEA545C05D170
:1004A0004000494128BF41F0004130BD14F58004AF
:1004B0003CBF01F5801130BD01F0004545F0FE4123
:1004C00041F470014FF0000030BD7FEA645C1ABF58
:1004D000194610467FEA655C1CBF0B46024650EA8F
:1004E000013406BF52EA033591EA030F41F40021BB
:1004F00030BD00BF90F0000F04BF0021704730B541
:100500004FF4806404F132044FF000054FF0000115
:1005100050E700BF90F0000F04BF0021704730B5D6
:100520004FF4806404F1320410F0004548BF4042AB
:100530004FF000013EE700BF42004FEAE2014FEA00
:1005400031014FEA02701FBF12F07F4393F07F4FDB
:1005500081F06051704732F07F4208BF704793F0DE
:100560007F4F04BF41F40021704730B54FF46074F1
:1005700001F0004521F000411CE700BF50EA0102F4
:1005800008BF704730B54FF000050AE050EA01029D
:1005900008BF704730B511F0004502D5404261EB0D
:1005A00041014FF4806404F132045FEA915C3FF44E
:1005B000D8AE4FF003025FEADC0C18BF03325FEAEB
:1005C000DC0C18BF033202EBDC02C2F1200300FA9C
:1005D00003FC20FA02F001FA03FE40EA0E0021FAC1
:1005E00002F11444BDE600BF70B54FF0FF0C4CF4AF
:1005F000E06C1CEA11541DBF1CEA135594EA0C0F61
:1006000095EA0C0F00F0DEF82C4481EA030621EA9B
:100610004C5123EA4C5350EA013518BF52EA0335D6
:1006200041F4801143F4801338D0A0FB02CE4FF088
:100630000005E1FB02E506F00042E0FB03E54FF0B8
:100640000006E1FB03569CF0000F18BF4EF0010EB0
:10065000A4F1FF04B6F5007F64F5407404D25FEAAC
:100660004E0E6D4146EB060642EAC62141EA55515F
:100670004FEAC52040EA5E504FEACE2EB4F1FD0CA1
:1006800088BFBCF5E06F1ED8BEF1004F08BF5FEA1F
:10069000500E50F1000041EB045170BD06F00046D1
:1006A00046EA010140EA020081EA0301B4EB5C047E
:1006B000C2BFD4EB0C0541EA045170BD41F4801176
:1006C0004FF0000E013C00F3AB8014F1360FDEBF9B
:1006D000002001F0004170BDC4F10004203C35DA77
:1006E0000C341BDC04F11404C4F1200500FA05F3FA
:1006F00020FA04F001FA05F240EA020001F000429B
:1007000021F0004110EBD37021FA04F642EB060110
:100710005EEA430E08BF20EAD37070BDC4F10C043A
:10072000C4F1200500FA04F320FA05F001FA04F2FE
:1007300040EA020001F0004110EBD37041F10001EA
:100740005EEA430E08BF20EAD37070BDC4F12005F5
:1007500000FA05F24EEA020E20FA04F301FA05F25D
:1007600043EA020321FA04F001F0004121FA04F205
:1007700020EA020000EBD3705EEA430E08BF20EAD5
:10078000D37070BD94F0000F0FD101F0004640000F
:1007900041EB010111F4801F08BF013CF7D041EA91
:1007A000060195F0000F18BF704703F00046520095
:1007B00043EB030313F4801F08BF013DF7D043EA66
:1007C0000603704794EA0C0F0CEA135518BF95EA1C
:1007D0000C0F0CD050EA410618BF52EA4306D1D1A3
:1007E00081EA030101F000414FF0000070BD50EAC2
:1007F000410606BF1046194652EA430619D094EA4C
:100800000C0F02D150EA013613D195EA0C0F05D135
:1008100052EA03361CBF104619460AD181EA030189
:1008200001F0004141F0FE4141F470014FF0000041
:1008300070BD41F0FE4141F4780170BD70B54FF0DC
:10084000FF0C4CF4E06C1CEA11541DBF1CEA13555C
:1008500094EA0C0F95EA0C0F00F0A7F8A4EB05043E
:1008600081EA030E52EA03354FEA013100F0888035
:100870004FEA03334FF0805545EA131343EA1263FE
:100880004FEA022245EA111545EA10654FEA0026B3
:100890000EF000419D4208BF964244F1FD0404F56C
:1008A000407402D25B084FEA3202B61A65EB0305C8
:1008B0005B084FEA32024FF480104FF4002CB6EB85
:1008C000020E75EB030E22BFB61A754640EA0C0005
:1008D0005B084FEA3202B6EB020E75EB030E22BF45
:1008E000B61A754640EA5C005B084FEA3202B6EB86
:1008F000020E75EB030E22BFB61A754640EA9C0045
:100900005B084FEA3202B6EB020E75EB030E22BF14
:10091000B61A754640EADC0055EA060E18D04FEAD2
:10092000051545EA16754FEA06164FEAC30343EA72
:1009300052734FEAC2025FEA1C1CC0D111F4801F3F
:100940000BD141EA00014FF000004FF0004CB6E738
:1009500011F4801F04BF01430020B4F1FD0C88BFD7
:10096000BCF5E06F3FF6AFAEB5EB030C04BFB6EBE2
:10097000020C5FEA500C50F1000041EB045170BDD5
:100980000EF0004E4EEA113114EB5C04C2BFD4EB02
:100990000C0541EA045170BD41F480114FF0000E86
:1009A000013C90E645EA060E8DE60CEA135594EA02
:1009B0000C0F08BF95EA0C0F3FF43BAF94EA0C0F05
:1009C0000AD150EA01347FF434AF95EA0C0F7FF47A
:1009D00025AF104619462CE795EA0C0F06D152EACE
:1009E00003353FF4FDAE1046194622E750EA4106B2
:1009F00018BF52EA43067FF4C5AE50EA41047FF4C3
:100A00000DAF52EA43057FF4EBAE12E74A0011D274
:100A100012F5001211D20DD56FF47873B3EB625258
:100A20000ED44FEAC12343F0004343EA505323FA64
:100A300002F070474FF00000704750EA013002D1D9
:100A40004FF0FF3070474FF00000704753B94AB97C
:100A5000002908BF00281CBF4FF0FF314FF0FF30C6
:100A600000F074B9ADF1080C6DE904CE00F006F8A1
:100A7000DDF804E0DDE9022304B070472DE9F0471A
:100A8000089D04468E46002B4DD18A42944669D972
:100A9000B2FA82F252B101FA02F3C2F1200120FA55
:100AA00001F10CFA02FC41EA030E94404FEA1C48A3
:100AB000210CBEFBF8F61FFA8CF708FB16E341EA9F
:100AC000034306FB07F199420AD91CEB030306F125
:100AD000FF3080F01F81994240F21C81023E634446
:100AE0005B1AA4B2B3FBF8F008FB103344EA0344EA
:100AF00000FB07F7A7420AD91CEB040400F1FF33FF
:100B000080F00A81A74240F207816444023840EA3B
:100B10000640E41B00261DB1D4400023C5E9004374
:100B20003146BDE8F0878B4209D9002D00F0EF80F7
:100B30000026C5E9000130463146BDE8F087B3FA2A
:100B400083F6002E4AD18B4202D3824200F2F98012
:100B5000841A61EB030301209E46002DE0D0C5E915
:100B6000004EDDE702B9FFDEB2FA82F2002A40F061
:100B70009280A1EB0C014FEA1C471FFA8CFE012664
:100B8000200CB1FBF7F307FB131140EA01410EFB08
:100B900003F0884208D91CEB010103F1FF3802D2AF
:100BA000884200F2CB804346091AA4B2B1FBF7F0A9
:100BB00007FB101144EA01440EFB00FEA64508D9CC
:100BC0001CEB040400F1FF3102D2A64500F2BB8009
:100BD0000846A4EB0E0440EA03409CE7C6F1200758
:100BE000B34022FA07FC4CEA030C20FA07F401FA9E
:100BF00006F31C43F9404FEA1C4900FA06F3B1FB27
:100C0000F9F8200C1FFA8CFE09FB181140EA01418B
:100C100008FB0EF0884202FA06F20BD91CEB010128
:100C200008F1FF3A80F08880884240F28580A8F180
:100C300002086144091AA4B2B1FBF9F009FB1011D2
:100C400044EA014100FB0EFE8E4508D91CEB010170
:100C500000F1FF346CD28E456AD90238614440EA13
:100C60000840A0FB0294A1EB0E01A142C846A64693
:100C700056D353D05DB1B3EB080261EB0E0101FA1C
:100C800007F722FA06F3F1401F43C5E90071002679
:100C90003146BDE8F087C2F12003D8400CFA02FCCF
:100CA00021FA03F3914001434FEA1C471FFA8CFEDF
:100CB000B3FBF7F007FB10360B0C43EA064300FBCF
:100CC0000EF69E4204FA02F408D91CEB030300F16D
:100CD000FF382FD29E422DD9023863449B1B89B224
:100CE000B3FBF7F607FB163341EA034106FB0EF3AD
:100CF0008B4208D91CEB010106F1FF3816D28B425A
:100D000014D9023E6144C91A46EA004638E72E4625
:100D1000284605E70646E3E61846F8E64B45A9D21D
:100D2000B9EB020864EB0C0E0138A3E74646EAE78C
:100D3000204694E74046D1E7D0467BE7023B61443A
:100D400032E7304609E76444023842E7704700BFA3
:100D500080B584B000AF78601C4B1D4A00217868D4
:100D600001F0DFFF194B5B78622B1BD1194805F0AE
:100D70000DF8164B1B781B011B11FB730EE0FB7B60
:100D8000124AD35C552B06D0FB7B104AD35C194624
:100D9000114804F0FBFFFB7B013BFB73FB7B012B4A
:100DA000EDD806E0094B5B787F2B02D10B4804F0AD
:100DB000EDFF0B4805F070F800220421094803F00C
:100DC000A5F800BF1037BD4680BD00BF0800002059
:100DD00048020020B46D0008E06D0008E86D0008CE
:100DE000106E00080004024080B582B000AF786049
:100DF000284B294A0121786801F093FF254B5B7845
:100E0000222B42D101220221244803F07FF82448FA
:100E100000F098FF4FF47A71214801F098F82048CB
:100E200001F030FA03461F4A13601D4801F05CF8D8
:100E30001D4B05221A701C4B62225A70194B1B68FD
:100E4000DAB2194B9A70174B1B681B0ADAB2164BB1
:100E5000DA70144B1B681B0CDAB2134B1A71114B6E
:100E60001B681B0EDAB2104B5A71104B0E4A104918
:100E7000786801F07BFE00220221084803F046F862
:100E800001220421054803F041F800BF0837BD46A0
:100E900080BD00BF18000020800200200004024036
:100EA000AC000020A0020020100000209C020020C6
:100EB0006802002080B582B000AF00F069FE00F04B
:100EC00095F800F0BBFA00F099FA00F0F9F800F09C
:100ED00049F900F09DF900F0F1F900F065FA3748A2
:100EE00001F000FE364801F0FDFD0021354803F019
:100EF00067FD0221314802F026F8334B08221A61BF
:100F0000314B00229A60304B0022DA602E4B40F2C7
:100F100012721A602D4B01221A702C4B22225A7029
:100F20001021274802F00FF8294B08221A61284B9C
:100F300000229A60264B0022DA60254B40F2A27212
:100F40001A6004F0DDFE7860224804F01FFF22489A
:100F500004F0A2FF214B1D4A1B49184801F006FE70
:100F6000012201211E4802F0D1FF4FF4FA7000F077
:100F700081FE002201211A4802F0C8FF04F0C0FEE1
:100F800002467B68D31A1846FFF7B4FA4FF0000206
:100F9000144BFFF753FC02460B464FF0000012497A
:100FA000FFF76AF902460B4610461946FFF72EFD79
:100FB0000346184600F05EFEC3E700BF5401002060
:100FC0007C010020A401002030020020000000204D
:100FD00068020020146E0008106E000864020020F1
:100FE0000004024000408F4000407F4080B594B034
:100FF00000AF07F1200330220021184604F0BEFEA6
:1010000007F10C0300221A605A609A60DA601A61D4
:101010000023BB60284B1B6C274A43F080531364AA
:10102000254B1B6C03F08053BB60BB6800237B60C7
:10103000224B1B68214A43F4804313601F4B1B68FB
:1010400003F480437B607B6801233B624FF4803371
:101050007B620223BB634FF48003FB6304233B6486
:10106000A8237B640223BB640423FB6407F12003F1
:10107000184602F065FF0346002B01D000F040FA4D
:101080000F23FB6002233B6100237B614FF4A053DD
:10109000BB614FF48053FB6107F10C030521184637
:1010A00003F0C6F90346002B01D000F029FA00BF77
:1010B0005037BD4680BD00BF003802400070004080
:1010C00080B584B000AF3B4600221A605A609A6037
:1010D000DA60214B214A1A601F4B4FF480325A606C
:1010E0001D4B00229A601C4B00221A611A4B0122F0
:1010F0001A76194B002283F82020174B0022DA625F
:10110000154B174A9A62144B0022DA60124B0122E7
:10111000DA61114B002283F830200F4B01225A6113
:101120000D4800F0CBFD0346002B01D000F0E8F99C
:1011300000233B6001237B600623BB603B461946CE
:10114000054801F0CBF80346002B01D000F0D8F998
:1011500000BF1037BD4680BDAC000020002001401C
:101160000100000F80B58AB000AF274B274A1A60F4
:10117000254B04225A60244B00229A60224B4FF0E8
:101180008072DA60204B4FF470221A611E4B4FF4CC
:1011900040125A611C4B00221A761B4B01225A76D0
:1011A000194B01229A76184B0022DA76164B002250
:1011B0001A77154B00225A77134801F0B7FA034605
:1011C000002B01D000F09CF901233B6212237B61CC
:1011D00000233B614FF240433B6000237B604FF2B2
:1011E0004043BB600023FB600023BB610123FB6124
:1011F00014237B623B461946034801F093FB00BF72
:101200002837BD4680BD00BF540100200064004067
:1012100080B58AB000AF274B274A1A60254B0422BD
:101220005A60244B00229A60224B4FF08072DA60A1
:10123000204B4FF470221A611E4B4FF440125A613A
:101240001C4B00221A761B4B01225A76194B0122A5
:101250009A76184B0022DA76164B00221A77154B35
:1012600000225A77134801F061FA0346002B01D09F
:1012700000F046F901233B620A237B6101233B61B5
:101280004EF240233B6000237B604EF24023BB6064
:101290000023FB600023BB610123FB6100237B6211
:1012A0003B461946034801F03DFB00BF2837BD46C9
:1012B00080BD00BF7C0100200068004080B58EB07A
:1012C00000AF07F1280300221A605A609A60DA60C2
:1012D00007F1200300221A605A603B1D00221A60A9
:1012E0005A609A60DA601A615A619A612D4B4FF028
:1012F00080421A602B4B00225A602A4B00229A60CF
:10130000284B4FF6FF72DA60264B00221A61254BFC
:1013100080229A61234803F0ABFA0346002B01D0E8
:1013200000F0EEF84FF48053BB6207F12803194632
:101330001C4803F0CFFC0346002B01D000F0E0F87E
:10134000184803F0E4FA0346002B01D000F0D8F867
:1013500000233B6200237B6207F1200319461148FA
:1013600004F090F80346002B01D000F0C9F8602388
:101370007B600023BB600023FB6000237B613B1D7F
:1013800000221946074803F0E3FB0346002B01D077
:1013900000F0B6F8034800F035FA00BF3837BD4614
:1013A00080BD00BFA401002080B500AF114B124AE0
:1013B0001A60104B4FF4E1325A600E4B00229A60D3
:1013C0000C4B0022DA600B4B00221A61094B0C22F5
:1013D0005A61084B00229A61064B0022DA610548E7
:1013E00004F0CCF80346002B01D000F089F800BFD0
:1013F00080BD00BFEC0100200010014080B582B02C
:1014000000AF00237B600C4B1B6B0B4A43F4800343
:101410001363094B1B6B03F480037B607B68002222
:101420000021382002F0B5F8382002F0CEF800BFD5
:101430000837BD4680BD00BF0038024080B588B087
:1014400000AF07F10C0300221A605A609A60DA605C
:101450001A610023BB601F4B1B6B1E4A43F08003C5
:1014600013631C4B1B6B03F08003BB60BB68002342
:101470007B60184B1B6B174A43F001031363154B3A
:101480001B6B03F001037B607B6800233B60114B07
:101490001B6B104A43F0020313630E4B1B6B03F0EC
:1014A00002033B603B68002207210B4802F02EFD3F
:1014B0000723FB6001233B6101237B610023BB61A8
:1014C00007F10C031946044802F084FB00BF2037E3
:1014D000BD4680BD003802400004024080B582B0A5
:1014E00000AF7860391D64230122044804F093F8AA
:1014F0007B6818460837BD4680BD00BFEC01002060
:1015000080B400AF72B600BFFEE7000080B582B0C5
:1015100000AF00237B60134B5B6C124A43F48043A3
:101520005364104B5B6C03F480437B607B68002347
:101530003B600C4B1B6C0B4A43F080531364094B0C
:101540001B6C03F080533B603B68002200210520A8
:1015500002F01FF8052002F038F800BF0837BD463A
:1015600080BD00BF0038024080B58AB000AF78600F
:1015700007F1140300221A605A609A60DA601A6157
:101580007B681B68324A93425ED100233B61314B3A
:101590005B6C304A43F4807353642E4B5B6C03F4F2
:1015A00080733B613B690023FB602A4B1B6B294A1C
:1015B00043F001031363274B1B6B03F00103FB6034
:1015C000FB6801237B610323BB610023FB6107F1FF
:1015D00014031946204802F0FDFA204B204A1A60F5
:1015E0001E4B00225A601D4B00229A601B4B0022AA
:1015F000DA601A4B4FF480621A61184B4FF4805234
:101600005A61164B4FF480429A61144B0022DA6102
:10161000124B00221A62114B00225A620F4801F04D
:10162000EFFF0346002B01D0FFF76AFF7B680B4AF0
:101630009A630A4A7B68936300220021122001F01A
:10164000A8FF122001F0C1FF00BF2837BD4680BDB2
:10165000002001400038024000000240F400002059
:101660001064024080B58CB000AF786007F11C03B5
:1016700000221A605A609A60DA601A617B681B68FF
:101680004A4A93423ED14A4B1B680133484A136091
:10169000474B1B68012B0DD10023BB61454B1B6CD5
:1016A000444A43F000731364424B1B6C03F0007315
:1016B000BB61BB6900237B613E4B1B6B3D4A43F022
:1016C000010313633B4B1B6B03F001037B617B69DD
:1016D0004FF4C053FB6102233B6201237B6203236F
:1016E000BB620923FB6207F11C031946324802F072
:1016F00071FA00220021142001F04BFF142001F0A8
:1017000064FF4FE07B681B682C4A93424AD1002358
:101710003B61284B1B6C274A43F080631364254BC5
:101720001B6C03F080633B613B69214B1B680133F9
:101730001F4A13601E4B1B68012B0DD10023FB6059
:101740001C4B1B6C1B4A43F000731364194B1B6C3E
:1017500003F00073FB60FB680023BB60154B1B6B41
:10176000144A43F002031363124B1B6B03F0020392
:10177000BB60BB686023FB6102233B6201237B6289
:101780000323BB620923FB6207F11C0319460C48C3
:1017900002F020FA00220021412001F0FAFE41204F
:1017A00001F013FF00BF3037BD4680BD006400402C
:1017B000A4020020003802400000024000680040FF
:1017C0000004024080B485B000AF78607B681B687D
:1017D000B3F1804F0DD10023FB60094B1B6C084A0D
:1017E00043F001031364064B1B6C03F00103FB6021
:1017F000FB6800BF1437BD465DF8047B704700BF2F
:101800000038024080B588B000AF786007F10C0363
:1018100000221A605A609A60DA601A617B681B685D
:10182000B3F1804F1DD10023BB60104B1B6B0F4ADF
:1018300043F0010313630D4B1B6B03F00103BB600B
:10184000BB682023FB6002233B6100237B610023F4
:10185000BB610123FB6107F10C031946044802F048
:10186000B9F900BF2037BD4680BD00BF0038024037
:101870000000024080B58AB000AF786007F1140321
:1018800000221A605A609A60DA601A617B681B68ED
:10189000194A93422CD100233B61184B5B6C174AC9
:1018A00043F010035364154B5B6C03F010033B6172
:1018B0003B690023FB60114B1B6B104A43F0010393
:1018C00013630E4B1B6B03F00103FB60FB684FF4CB
:1018D000C0637B610223BB610123FB6103233B6285
:1018E00007237B6207F114031946054802F072F9D9
:1018F00000BF2837BD4680BD0010014000380240BF
:101900000000024080B400AFFEE780B400AFFEE705
:1019100080B400AFFEE780B400AFFEE780B400AF54
:10192000FEE780B400AF00BFBD465DF8047B7047A2
:1019300080B400AF00BFBD465DF8047B704780B443
:1019400000AF00BFBD465DF8047B704780B500AFB7
:1019500000F070F900BF80BD80B400AF00BFBD468D
:101960005DF8047B7047000080B500AF024800F0CE
:1019700079FB00BF80BD00BFAC00002080B500AF88
:10198000024801F006FB00BF80BD00BF54010020EB
:1019900080B500AF024801F0E1FE00BF80BD00BF8E
:1019A000F400002080B500AF024801F0F2FA00BF59
:1019B00080BD00BF7C01002080B586B000AFF8601C
:1019C000B9607A6000237B610AE0AFF300800146D2
:1019D000BB685A1CBA60CAB21A707B6901337B615A
:1019E0007A697B689A42F0DB7B6818461837BD46F7
:1019F00080BD80B586B000AFF860B9607A60002322
:101A00007B6109E0BB685A1CBA601B781846FFF777
:101A100065FD7B6901337B617A697B689A42F1DB02
:101A20007B6818461837BD4680BD80B483B000AFD0
:101A300078604FF0FF3318460C37BD465DF8047BE5
:101A4000704780B483B000AF786039603B684FF472
:101A500000525A60002318460C37BD465DF8047BDF
:101A6000704780B483B000AF7860012318460C370C
:101A7000BD465DF8047B704780B485B000AFF86068
:101A8000B9607A60002318461437BD465DF8047BC0
:101A9000704780B483B000AF78604FF0FF331846D2
:101AA0000C37BD465DF8047B7047000080B586B0FA
:101AB00000AF7860144A154BD31A7B617B693B6198
:101AC000134B1B68002B02D1114B124A1A60104BAA
:101AD0001A687B6813443A699A4207D204F024F9E1
:101AE00003460C221A604FF0FF3309E0084B1B68D5
:101AF000FB60074B1A687B681344054A1360FB6858
:101B000018461837BD4680BD0000022000040000C2
:101B1000A8020020C002002080B400AF064BD3F81A
:101B20008830054A43F47003C2F8883000BFBD46D0
:101B30005DF8047B704700BF00ED00E0DFF834D0B3
:101B40000D480E490E4A002302E0D458C450043315
:101B5000C4188C42F9D30B4A0B4C002301E01360EC
:101B60000432A242FBD3FFF7D7FF04F0E3F8FFF7FC
:101B7000A1F9704700000220000000209000002022
:101B8000106F000890000020C0020020FEE7000057
:101B900080B500AF0E4B1B680D4A43F40073136011
:101BA0000B4B1B680A4A43F480631360084B1B68A5
:101BB000074A43F480731360032001F0DFFC0F2019
:101BC00000F008F8FFF7A2FC0023184680BD00BF14
:101BD000003C024080B582B000AF7860124B1A68BA
:101BE000124B1B7819464FF47A73B3FBF1F3B2FB37
:101BF000F3F3184601F0F7FC0346002B01D0012354
:101C00000EE07B680F2B0AD8002279684FF0FF3076
:101C100001F0BFFC064A7B681360002300E001234B
:101C200018460837BD4680BD20000020280000204F
:101C30002400002080B400AF064B1B781A46064BE8
:101C40001B681344044A136000BFBD465DF8047B63
:101C5000704700BF28000020AC02002080B400AF15
:101C6000034B1B681846BD465DF8047B704700BFF8
:101C7000AC02002080B584B000AF7860FFF7EEFFC3
:101C8000B8607B68FB60FB68B3F1FF3F05D00A4B8F
:101C90001B781A46FB681344FB6000BFFFF7DEFFAA
:101CA0000246BB68D31AFA689A42F7D800BF00BF51
:101CB0001037BD4680BD00BF2800002080B584B02D
:101CC00000AF78600023FB737B68002B01D10123F8
:101CD00033E07B681B6C002B09D17868FFF744FC6C
:101CE0007B6800225A647B68002283F83C207B6872
:101CF0001B6C03F01003002B18D17B681B6C23F4C2
:101D0000885323F0020343F002027B681A64786868
:101D100000F006FC7B6800225A647B681B6C23F091
:101D2000030343F001027B681A6401E00123FB73A3
:101D30007B68002283F83C20FB7B18461037BD46A9
:101D400080BD000080B485B000AF78600023BB6028
:101D50007B6893F83C30012B01D10223B2E07B6811
:101D6000012283F83C207B681B689B6803F0010319
:101D7000012B18D07B681B689A687B681B6842F04F
:101D800001029A60524B1B68524AA2FB03239A0C31
:101D900013465B001344BB6002E0BB68013BBB60C1
:101DA000BB68002BF9D17B681B689B6803F00103BB
:101DB000012B7AD17B681B6C23F4E06323F00103D1
:101DC00043F480727B681A647B681B685B6803F469
:101DD0008063002B07D07B681B6C23F4405343F4D3
:101DE00080527B681A647B681B6C03F48053B3F5E4
:101DF000805F06D17B685B6C23F006027B685A64C7
:101E000002E07B6800225A647B68002283F83C2051
:101E1000314BFB607B681B686FF022021A60FB6825
:101E20005B6803F01F03002B2AD17B681B682B4AD9
:101E3000934215D07B681B68294A934205D1264BF3
:101E40005B6803F01F03002B0AD07B681B68254AE0
:101E5000934236D1204B5B6803F01003002B30D146
:101E60007B681B689B6803F04053002B29D17B687B
:101E70001B689A687B681B6842F080429A6020E089
:101E80007B681B68154A93421BD17B681B689B6863
:101E900003F04053002B14D17B681B689A687B6861
:101EA0001B6842F080429A600BE07B681B6C43F039
:101EB00010027B681A647B685B6C43F001027B68EC
:101EC0005A64002318461437BD465DF8047B7047FA
:101ED0002000002083DE1B4300230140002001403E
:101EE000002101400022014080B483B000AF78603F
:101EF0007B6893F83C30012B01D1022321E07B6801
:101F0000012283F83C207B681B689A687B681B6809
:101F100022F001029A607B681B689B6803F0010352
:101F2000002B09D17B681B6C23F4885323F0010339
:101F300043F001027B681A647B68002283F83C202E
:101F4000002318460C37BD465DF8047B704780B50A
:101F500084B000AF786039600023FB607B681B6849
:101F60009B6803F48063B3F5806F13D17B681B68B3
:101F70009B6803F48073B3F5807F0BD17B681B6C87
:101F800043F020027B681A647B68002283F83C20BF
:101F9000012363E0FFF762FEF86021E03B68B3F1E4
:101FA000FF3F1DD03B68002B07D0FFF757FE0246CE
:101FB000FB68D31A3A689A4212D27B681B681B6886
:101FC00003F00203022B0BD07B681B6C43F004026E
:101FD0007B681A647B68002283F83C2003233DE081
:101FE0007B681B681B6803F00203022BD6D17B6859
:101FF0001B686FF012021A607B681B6C43F400725E
:102000007B681A647B681B689B6803F04053002B55
:1020100023D17B681B7E002B1FD17B681B68DB6A8A
:1020200003F47003002B06D07B681B689B6803F4E5
:102030008063002B11D17B681B6C23F480727B685A
:102040001A647B681B6C03F48053002B05D17B68FA
:102050001B6C43F001027B681A640023184610379A
:10206000BD4680BD80B586B000AF786000237B613F
:1020700000233B617B681B681B68FB607B681B68F7
:102080005B68BB60FB6803F002037B61BB6803F025
:1020900020033B617B69002B49D03B69002B46D074
:1020A0007B681B6C03F01003002B05D17B681B6C55
:1020B00043F400727B681A647B681B689B6803F0BA
:1020C0004053002B2BD17B681B7E002B27D17B68D4
:1020D0001B68DB6A03F47003002B06D07B681B6867
:1020E0009B6803F48063002B19D17B681B685A68D6
:1020F0007B681B6822F020025A607B681B6C23F40B
:1021000080727B681A647B681B6C03F48053002B1D
:1021100005D17B681B6C43F001027B681A64786808
:1021200000F0BDF87B681B686FF012021A60FB6854
:1021300003F004037B61BB6803F080033B617B69B0
:10214000002B57D03B69002B54D07B681B6C03F0ED
:102150001003002B05D17B681B6C43F400527B6895
:102160001A647B681B689B6803F44013002B39D109
:102170007B681B689B6B03F44013002B06D07B68C5
:102180001B689B6803F48063002B2BD17B681B6862
:102190005B6803F48063002B24D17B681B689B6819
:1021A00003F04053002B1DD17B681B7E002B19D1FF
:1021B0007B681B685A687B681B6822F080025A6043
:1021C0007B681B6C23F480527B681A647B681B6CF1
:1021D00003F48073002B05D17B681B6C43F0010274
:1021E0007B681A64786800F097FA7B681B686FF068
:1021F0000C021A60FB6803F001037B61BB6803F00B
:1022000040033B617B69002B17D03B69002B14D046
:102210007B681B681B6803F00103012B0DD17B68F1
:102220001B6C43F480327B681A64786800F041F8D4
:102230007B681B686FF001021A60FB6803F02003E3
:102240007B61BB6803F080633B617B69002B15D029
:102250003B69002B12D07B685B6C43F002027B6809
:102260005A647B681B686FF020021A60786800F07F
:102270002AF87B681B686FF020021A6000BF1837CD
:10228000BD4680BD80B483B000AF78607B681B68BA
:10229000DB6C18460C37BD465DF8047B704780B494
:1022A00083B000AF786000BF0C37BD465DF8047B9B
:1022B000704780B483B000AF786000BF0C37BD4674
:1022C0005DF8047B704780B483B000AF786000BFD6
:1022D0000C37BD465DF8047B7047000080B485B0C4
:1022E00000AF786039600023BB607B6893F83C30B6
:1022F000012B01D1022305E17B68012283F83C20F8
:102300003B681B68092B25D97B681B68D9683B682B
:102310001B689BB21A4613465B0013441E3B072200
:1023200002FA03F3DA437B681B680A40DA607B68D1
:102330001B68D9683B689A683B681B689BB2184663
:1023400003465B0003441E3B9A407B681B680A43BC
:10235000DA6022E07B681B6819693B681B689BB2E6
:102360001A4613465B001344072202FA03F3DA43CA
:102370007B681B680A401A617B681B6819693B68A7
:102380009A683B681B689BB2184603465B0003448F
:102390009A407B681B680A431A613B685B68062B9E
:1023A00024D87B681B68596B3B685A6813469B00AE
:1023B0001344053B1F2202FA03F3DA437B681B68D0
:1023C0000A405A637B681B68596B3B681B689BB269
:1023D00018463B685A6813469B001344053B00FAB5
:1023E00003F27B681B680A435A634CE03B685B68F6
:1023F0000C2B24D87B681B68196B3B685A68134602
:102400009B001344233B1F2202FA03F3DA437B6849
:102410001B680A401A637B681B68196B3B681B6862
:102420009BB218463B685A6813469B001344233BF3
:1024300000FA03F27B681B680A431A6323E07B6897
:102440001B68D96A3B685A6813469B001344413B9A
:102450001F2202FA03F3DA437B681B680A40DA6240
:102460007B681B68D96A3B681B689BB218463B684F
:102470005A6813469B001344413B00FA03F27B6801
:102480001B680A43DA62224BFB607B681B68214AA7
:10249000934209D13B681B68122B05D1FB685B682E
:1024A00043F48002FB685A607B681B68194A9342B8
:1024B00023D13B681B68102B03D03B681B68112B92
:1024C0001BD1FB685B6843F40002FB685A603B6801
:1024D0001B68102B11D1104B1B68104AA2FB032361
:1024E0009A0C13469B0013445B00BB6002E0BB6880
:1024F000013BBB60BB68002BF9D17B68002283F8ED
:102500003C20002318461437BD465DF8047B704715
:1025100000230140002001402000002083DE1B43F7
:1025200080B485B000AF7860794BFB60FB685B6876
:1025300023F44032FB685A60FB685A687B685B682A
:102540001A43FB685A607B681B685A687B681B6883
:1025500022F480725A607B681B6859687B681B692B
:102560001A027B681B680A435A607B681B685A68BA
:102570007B681B6822F040725A607B681B68596850
:102580007B689A687B681B680A435A607B681B6893
:102590009A687B681B6822F400629A607B681B68FB
:1025A00099687B68DA687B681B680A439A607B6875
:1025B0009B6A584A934222D07B681B689A687B6862
:1025C0001B6822F070629A607B681B6899687B6860
:1025D0009A6A7B681B680A439A607B681B689A68E2
:1025E0007B681B6822F040529A607B681B68996880
:1025F0007B68DA6A7B681B680A439A600FE07B6835
:102600001B689A687B681B6822F070629A607B681E
:102610001B689A687B681B6822F040529A607B684E
:102620001B689A687B681B6822F002029A607B68CC
:102630001B6899687B681B7E5A007B681B680A438D
:102640009A607B6893F82030002B1BD07B681B6856
:102650005A687B681B6842F400625A607B681B689A
:102660005A687B681B6822F460425A607B681B686A
:1026700059687B685B6A013B5A037B681B680A43A5
:102680005A6007E07B681B685A687B681B6822F405
:1026900000625A607B681B68DA6A7B681B6822F4F8
:1026A0007002DA627B681B68D96A7B68DB69013B70
:1026B0001A057B681B680A43DA627B681B689A68A4
:1026C0007B681B6822F400729A607B681B689968BB
:1026D0007B6893F830305A027B681B680A439A6023
:1026E0007B681B689A687B681B6822F480629A602A
:1026F0007B681B6899687B685B699A027B681B68CA
:102700000A439A6000BF1437BD465DF8047B7047EA
:10271000002301400100000F80B483B000AF786057
:1027200000BF0C37BD465DF8047B704780B584B0B0
:1027300000AF78607B68002B01D10123EDE07B685E
:1027400093F82030DBB2002B02D17868FEF78AFFC5
:102750007B681B681A687B681B6842F001021A607C
:10276000FFF77CFAF86012E0FFF778FA0246FB68A0
:10277000D31A0A2B0BD97B685B6A43F400327B685F
:102780005A627B68052283F820200123C5E07B681C
:102790001B685B6803F00103002BE5D07B681B68B6
:1027A0001A687B681B6822F002021A60FFF756FA6B
:1027B000F86012E0FFF752FA0246FB68D31A0A2BC0
:1027C0000BD97B685B6A43F400327B685A627B6892
:1027D000052283F8202001239FE07B681B685B684B
:1027E00003F00203002BE5D17B681B7E012B08D18F
:1027F0007B681B681A687B681B6842F080021A605D
:1028000007E07B681B681A687B681B6822F08002FF
:102810001A607B685B7E012B08D17B681B681A6895
:102820007B681B6842F040021A6007E07B681B6807
:102830001A687B681B6822F040021A607B689B7EE6
:10284000012B08D17B681B681A687B681B6842F003
:1028500020021A6007E07B681B681A687B681B68A7
:1028600022F020021A607B68DB7E012B08D17B6896
:102870001B681A687B681B6822F010021A6007E068
:102880007B681B681A687B681B6842F010021A603C
:102890007B681B7F012B08D17B681B681A687B68EB
:1028A0001B6842F008021A6007E07B681B681A6820
:1028B0007B681B6822F008021A607B685B7F012B33
:1028C00008D17B681B681A687B681B6842F00402A9
:1028D0001A6007E07B681B681A687B681B6822F037
:1028E00004021A607B689A687B68DB681A437B681D
:1028F0001B691A437B685B6942EA03017B685B687A
:102900005A1E7B681B680A43DA617B6800225A62A0
:102910007B68012283F82020002318461037BD462B
:1029200080BD000080B487B000AF786039607B68FC
:102930001B687B617B6893F82030FB74FB7C012B68
:1029400003D0FB7C022B40F0BE80654B7B617B6932
:10295000D3F8003243F001027B69C3F800227B699F
:10296000D3F8003223F47C527B69C3F800227B69E0
:10297000D3F800223B685B6A1B021A437B69C3F8E9
:1029800000223B685B6903F01F03012202FA03F394
:10299000FB607B69D3F81C22FB68DB431A407B6930
:1029A000C3F81C223B68DB69002B23D17B69D3F879
:1029B0000C22FB68DB431A407B69C3F80C223B689E
:1029C000DB6819043B685B689BB23A68526919433B
:1029D0007B69483243F832103B689B6819043B68B6
:1029E0001B689AB23B685B690A4379694833DB002C
:1029F0000B445A603B68DB69012B22D17B69D3F819
:102A00000C22FB681A437B69C3F80C223B681B68E5
:102A100019043B685B689BB23A68526919437B6949
:102A2000483243F832103B689B6819043B68DB6806
:102A30009AB23B685B690A4379694833DB000B440F
:102A40005A603B689B69002B09D17B69D3F804224B
:102A5000FB68DB431A407B69C3F8042207E07B690B
:102A6000D3F80422FB681A437B69C3F804223B684D
:102A70001B69002B09D17B69D3F81422FB68DB4367
:102A80001A407B69C3F8142207E07B69D3F814224B
:102A9000FB681A437B69C3F814223B681B6A012B4D
:102AA00007D17B69D3F81C22FB681A437B69C3F802
:102AB0001C227B69D3F8003223F001027B69C3F842
:102AC0000022002306E07B685B6A43F480227B6877
:102AD0005A62012318461C37BD465DF8047B7047D7
:102AE0000064004080B584B000AF78607B6893F8E4
:102AF0002030DBB2012B2ED17B68022283F820200C
:102B00007B681B681A687B681B6822F001021A60E8
:102B1000FFF7A4F8F86012E0FFF7A0F80246FB68A0
:102B2000D31A0A2B0BD97B685B6A43F400327B68AB
:102B30005A627B68052283F82020012312E07B681B
:102B40001B685B6803F00103002BE5D17B68002262
:102B50005A62002306E07B685B6A43F400227B68CC
:102B60005A62012318461037BD4680BD80B489B033
:102B700000AFF860B9607A603B60FB6893F8203082
:102B8000FB77FB681B689B68BB61FB7F012B03D055
:102B9000FB7F022B40F0B880BB6903F08063002B01
:102BA0000AD1BB6903F00063002B05D1BB6903F0B8
:102BB0008053002B00F0A080BB691B0E03F00303C1
:102BC0007B617B69022B07D9FB685B6A43F40002D7
:102BD000FB685A6201239EE001227B699A403B68B0
:102BE0001A60BB689B68002B0DD1BB681B685A0537
:102BF000BB68DB68F96809681A437B6918331B01F5
:102C00000B441A600FE0BB685B68DA00BB689B6826
:102C10001A43BB68DB68F96809681A437B69183393
:102C20001B010B441A60FB681968BB681A697B6951
:102C300018331B010B4404331A60BB681B7D012B46
:102C400011D1FB681A687B6918331B0113440433E4
:102C50001B68FA68116843F480727B6918331B01A2
:102C60000B4404331A607B6807331B781A067B68B1
:102C700006331B781B041A437B6805331B781B0241
:102C800013437A68043212781046FA68116843EAEE
:102C900000027B691B010B4403F5C6731A607B6855
:102CA00003331B781A067B6802331B781B041A4314
:102CB0007B6801331B781B0213437A681278104635
:102CC000FA68116843EA00027B691B010B4403F5B3
:102CD000C4731A60FB681A687B6918331B011344BC
:102CE0001B68FA68116843F001027B6918331B0105
:102CF0000B441A6000230EE0FB685B6A43F4001289
:102D0000FB685A62012306E0FB685B6A43F4802299
:102D1000FB685A62012318462437BD465DF8047BE0
:102D2000704780B487B000AFF860B9607A603B60EC
:102D3000FB6893F82030FB75FB7D012B03D0FB7DF6
:102D4000022B40F0F380BB68002B0ED1FB681B68A0
:102D5000DB6803F00303002B16D1FB685B6A43F4C6
:102D60000012FB685A620123E7E0FB681B681B69DD
:102D700003F00303002B07D1FB685B6A43F40012E6
:102D8000FB685A620123D8E0FB681A68BB681B33F2
:102D90001B0113441B6803F004027B689A607B6884
:102DA0009B68002B0CD1FB681A68BB681B331B01A6
:102DB00013441B685B0DC3F30A027B681A600BE0C7
:102DC000FB681A68BB681B331B0113441B68DB08D4
:102DD00023F060427B685A60FB681A68BB681B334B
:102DE0001B0113441B6803F002027B68DA60FB6876
:102DF0001A68BB681B331B01134404331B6803F0C0
:102E00000F027B681A61FB681A68BB681B331B01E1
:102E1000134404331B681B0ADAB27B689A61FB68AF
:102E20001A68BB681B331B01134404331B681B0C5B
:102E30009AB27B685A61FB681A68BB681B0113442D
:102E400003F5DC731B68DAB23B681A70FB681A681A
:102E5000BB681B01134403F5DC731B681A0A3B684B
:102E60000133D2B21A70FB681A68BB681B011344A5
:102E700003F5DC731B681A0C3B680233D2B21A707C
:102E8000FB681A68BB681B01134403F5DC731B68FD
:102E90001A0E3B680333D2B21A70FB681A68BB681B
:102EA0001B01134403F5DE731A683B680433D2B286
:102EB0001A70FB681A68BB681B01134403F5DE73C4
:102EC0001B681A0A3B680533D2B21A70FB681A688D
:102ED000BB681B01134403F5DE731B681A0C3B68C7
:102EE0000633D2B21A70FB681A68BB681B01134420
:102EF00003F5DE731B681A0E3B680733D2B21A70F3
:102F0000BB68002B08D1FB681B68DA68FB681B688C
:102F100042F02002DA6007E0FB681B681A69FB6870
:102F20001B6842F020021A61002306E0FB685B6A1E
:102F300043F48022FB685A62012318461C37BD46C1
:102F40005DF8047B704780B485B000AF786039606D
:102F50007B6893F82030FB73FB7B012B02D0FB7B5B
:102F6000022B09D17B681B6859697B681B683A682A
:102F70000A435A61002306E07B685B6A43F48022BF
:102F80007B685A62012318461437BD465DF8047BFE
:102F9000704780B58AB000AF786000237B627B68A1
:102FA0001B685B693B627B681B685B68FB617B68D5
:102FB0001B689B68BB617B681B68DB687B617B6807
:102FC0001B681B693B617B681B689B69FB603B6AF4
:102FD00003F00103002B7CD0BB6903F00103002B3D
:102FE00023D07B681B6801229A60BB6903F002034F
:102FF000002B03D0786800F083F916E0BB6903F07A
:103000000403002B04D07B6A43F400637B620CE072
:10301000BB6903F00803002B04D07B6A43F48053A0
:103020007B6202E0786800F089F9BB6903F4807381
:10303000002B24D07B681B684FF480729A60BB69B8
:1030400003F40073002B03D0786800F063F916E0F6
:10305000BB6903F48063002B04D07B6A43F4005304
:103060007B620CE0BB6903F40063002B04D07B6A35
:1030700043F480437B6202E0786800F069F9BB6941
:1030800003F48033002B24D07B681B684FF480321C
:103090009A60BB6903F40033002B03D0786800F01A
:1030A00043F916E0BB6903F48023002B04D07B6A4C
:1030B00043F400437B620CE0BB6903F40023002B64
:1030C00004D07B6A43F480337B6202E0786800F0CE
:1030D00049F93B6A03F00803002B0CD07B6903F02D
:1030E0001003002B07D07B6A43F400737B627B687C
:1030F0001B681022DA603B6A03F00403002B0BD03C
:103100007B6903F00803002B06D07B681B6808224C
:10311000DA60786800F030F93B6A03F00203002BB4
:1031200009D07B681B68DB6803F00303002B02D027
:103130007868FDF70DFE3B6A03F04003002B0CD0CE
:103140003B6903F01003002B07D07B6A43F48063D4
:103150007B627B681B6810221A613B6A03F02003C4
:10316000002B0BD03B6903F00803002B06D07B68D3
:103170001B6808221A61786800F008F93B6A03F0BE
:103180001003002B09D07B681B681B6903F0030345
:10319000002B02D07868FDF727FE3B6A03F400336A
:1031A000002B0BD0FB6903F01003002B06D07B68CB
:1031B0001B6810225A60786800F0F2F83B6A03F44A
:1031C0008033002B0BD0FB6903F00803002B06D0E3
:1031D0007B681B6808225A60786800F0EBF83B6A4D
:1031E00003F40043002B7BD0FB6903F00403002BA6
:1031F00072D03B6A03F48073002B08D0FB6803F0A5
:103200000103002B03D07B6A43F001037B623B6A1E
:1032100003F40073002B08D0FB6803F00203002BBB
:1032200003D07B6A43F002037B623B6A03F4806352
:10323000002B08D0FB6803F00403002B03D07B6A4B
:1032400043F004037B623B6A03F40063002B43D02A
:10325000FB6803F07003002B3ED0FB6803F07003A3
:10326000602B2BD0602B2ED8502B22D0502B2AD85D
:10327000402B19D0402B26D8302B10D0302B22D801
:10328000102B02D0202B05D01DE07B6A43F00803F1
:103290007B6219E07B6A43F010037B6214E07B6A77
:1032A00043F020037B620FE07B6A43F040037B62C4
:1032B0000AE07B6A43F080037B6205E07B6A43F4AB
:1032C00080737B6200E000BF7B681B689A697B6843
:1032D0001B6822F070029A617B681B6804225A60A6
:1032E0007B6A002B08D07B685A6A7B6A1A437B682A
:1032F0005A62786800F068F800BF2837BD4680BD84
:1033000080B483B000AF786000BF0C37BD465DF875
:10331000047B704780B483B000AF786000BF0C3787
:10332000BD465DF8047B704780B483B000AF786021
:1033300000BF0C37BD465DF8047B704780B483B096
:1033400000AF786000BF0C37BD465DF8047B704766
:1033500080B483B000AF786000BF0C37BD465DF825
:10336000047B704780B483B000AF786000BF0C3737
:10337000BD465DF8047B704780B483B000AF7860D1
:1033800000BF0C37BD465DF8047B704780B483B046
:1033900000AF786000BF0C37BD465DF8047B704716
:1033A00080B483B000AF786000BF0C37BD465DF8D5
:1033B000047B704780B483B000AF786000BF0C37E7
:1033C000BD465DF8047B704780B483B000AF786081
:1033D00000BF0C37BD465DF8047B704780B485B0F4
:1033E00000AF78607B6803F00703FB600C4BDB6881
:1033F000BB60BA684FF6FF031340BB60FB681A025C
:10340000BB68134343F0BF6343F40033BB60044A1B
:10341000BB68D36000BF1437BD465DF8047B7047BE
:1034200000ED00E080B400AF044BDB681B0A03F042
:1034300007031846BD465DF8047B704700ED00E0C9
:1034400080B483B000AF0346FB7197F90730002BBF
:103450000BDBFB7903F01F02074997F907305B0983
:10346000012000FA02F241F8232000BF0C37BD46CC
:103470005DF8047B704700BF00E100E080B483B0DA
:1034800000AF03463960FB7197F90730002B0ADB68
:103490003B68DAB20C4997F907301201D2B20B44FB
:1034A00083F800230AE03B68DAB20849FB7903F0AD
:1034B0000F03043B1201D2B20B441A7600BF0C3743
:1034C000BD465DF8047B704700E100E000ED00E0E0
:1034D00080B489B000AFF860B9607A60FB6803F02F
:1034E0000703FB61FB69C3F10703042B28BF042317
:1034F000BB61FB690433062B02D9FB69033B00E087
:1035000000237B614FF0FF32BB6902FA03F3DA4319
:10351000BB681A407B699A404FF0FF317B6901FA22
:1035200003F3D9437B680B40134318462437BD4649
:103530005DF8047B7047000080B582B000AF786012
:103540007B68013BB3F1807F01D301230FE00A4A7E
:103550007B68013B53600F214FF0FF30FFF78EFF78
:10356000054B00229A60044B07221A60002318467C
:103570000837BD4680BD00BF10E000E080B582B0D6
:1035800000AF78607868FFF729FF00BF0837BD46B5
:1035900080BD80B586B000AF0346B9607A60FB732A
:1035A00000237B61FFF73EFF78617A68B96878692C
:1035B000FFF78EFF024697F90F3011461846FFF7C6
:1035C0005DFF00BF1837BD4680BD80B582B000AF3B
:1035D0000346FB7197F907301846FFF731FF00BF2C
:1035E0000837BD4680BD80B582B000AF786078688E
:1035F000FFF7A2FF034618460837BD4680BD00000E
:1036000080B586B000AF786000237B61FEF726FBB3
:1036100038617B68002B01D1012399E07B6802228D
:1036200083F835207B68002283F834207B681B6890
:103630001A687B681B6822F001021A600FE0FEF72F
:103640000DFB02463B69D31A052B08D97B68202263
:103650005A657B68032283F83520032378E07B6872
:103660001B681B6803F00103002BE8D17B681B6813
:103670001B687B617A69384B13407B617B685A68B1
:103680007B689B681A437B68DB681A437B681B690D
:103690001A437B685B691A437B689B691A437B68A2
:1036A000DB691A437B681B6A13437A6913437B61A6
:1036B0007B685B6A042B07D17B68DA6A7B681B6BCB
:1036C00013437A6913437B617B681B687A691A60CC
:1036D0007B681B685B697B617B6923F007037B6107
:1036E0007B685B6A7A6913437B617B685B6A042B46
:1036F00017D17B689B6A7A6913437B617B68DB6ABD
:10370000002B0ED0786800F0E9F90346002B08D0B2
:103710007B6840225A657B68012283F835200123AB
:1037200016E07B681B687A695A61786800F0A0F936
:103730000346FB607B68DB6D3F229A40FB689A6022
:103740007B6800225A657B68012283F835200023BC
:1037500018461837BD4680BD3F8010F080B586B052
:1037600000AF78600023BB608E4B1B688E4AA2FBC3
:1037700003239B0A7B617B689B6D3B613B691B68F4
:10378000FB607B68DB6D08229A40FB681340002BCE
:103790001AD07B681B681B6803F00403002B13D04E
:1037A0007B681B681A687B681B6822F004021A6039
:1037B0007B68DB6D08229A403B699A607B685B6D91
:1037C00043F001027B685A657B68DB6D01229A40F9
:1037D000FB681340002B12D07B681B685B6903F009
:1037E0008003002B0BD07B68DB6D01229A403B6984
:1037F0009A607B685B6D43F002027B685A657B6868
:10380000DB6D04229A40FB681340002B12D07B68CA
:103810001B681B6803F00203002B0BD07B68DB6D79
:1038200004229A403B699A607B685B6D43F0040216
:103830007B685A657B68DB6D10229A40FB681340F9
:10384000002B43D07B681B681B6803F00803002B28
:103850003CD07B68DB6D10229A403B699A607B68A4
:103860001B681B6803F48023002B18D07B681B683F
:103870001B6803F40023002B08D17B681B6C002B12
:1038800024D07B681B6C786898471FE07B689B6C32
:10389000002B1BD07B689B6C7868984716E07B6890
:1038A0001B681B6803F48073002B07D17B681B68BF
:1038B0001A687B681B6822F008021A607B681B6C20
:1038C000002B03D07B681B6C786898477B68DB6DA6
:1038D00020229A40FB681340002B00F08F807B6809
:1038E0001B681B6803F01003002B00F087807B68C7
:1038F000DB6D20229A403B699A607B6893F83530F3
:10390000DBB2052B36D17B681B681A687B681B68A5
:1039100022F016021A607B681B685A697B681B6874
:1039200022F080025A617B681B6C002B03D17B68FC
:103930009B6C002B07D07B681B681A687B681B6830
:1039400022F008021A607B68DB6D3F229A403B69D7
:103950009A607B68012283F835207B68002283F817
:1039600034207B681B6D002B7ED07B681B6D7868D4
:10397000984779E07B681B681B6803F48023002B61
:103980001DD07B681B681B6803F40023002B0DD13E
:103990007B685B6C002B31D07B685B6C78689847E8
:1039A0002CE000BF20000020B5814E1B7B68DB6B44
:1039B000002B23D07B68DB6B786898471EE07B6820
:1039C0001B681B6803F48073002B0FD17B681B6896
:1039D0001A687B681B6822F010021A607B6801225B
:1039E00083F835207B68002283F834207B68DB6B0A
:1039F000002B03D07B68DB6B786898477B685B6D36
:103A0000002B32D07B685B6D03F00103002B22D0CA
:103A10007B68052283F835207B681B681A687B6801
:103A20001B6822F001021A60BB680133BB607A692F
:103A30009A4207D37B681B681B6803F00103002BC5
:103A4000F2D100E000BF7B68012283F835207B685B
:103A5000002283F834207B68DB6C002B05D07B6868
:103A6000DB6C7868984700E000BF1837BD4680BD22
:103A700080B485B000AF78607B681B68DBB2103B18
:103A8000144AA2FB03231B09FB60134AFB6813447F
:103A90001B781A467B68DA65FB68032B09D97B68BB
:103AA0001B6823F47F7323F003031A1D7B689A6558
:103AB00007E07B681B6823F47F7323F003037A68B5
:103AC00093657B689B6D18461437BD465DF8047B93
:103AD000704700BFABAAAAAA606E000880B485B088
:103AE00000AF78600023FB737B689B6ABB607B68D8
:103AF0009B69002B1FD1BB68032B56D801A252F83B
:103B000023F000BF153B0008273B0008153B0008C9
:103B1000AB3B00087B68DB6A03F08073002B46D068
:103B20000123FB7343E07B68DB6AB3F1C07F40D1C4
:103B30000123FB733DE07B689B69B3F5005F21D1F6
:103B4000BB68032B37D801A252F823F05D3B000875
:103B5000633B00085D3B0008753B00080123FB73D5
:103B600030E07B68DB6A03F08073002B25D00123F3
:103B7000FB7322E07B68DB6AB3F1C07F1FD10123B6
:103B8000FB731CE0BB68022B03D9BB68032B03D07B
:103B900018E00123FB7315E07B68DB6A03F0807398
:103BA000002B0ED00123FB730BE000BF0AE000BF27
:103BB00008E000BF06E000BF04E000BF02E000BF75
:103BC00000E000BFFB7B18461437BD465DF8047B60
:103BD000704700BF80B489B000AF786039600023BF
:103BE0007B6100233B610023BB610023FB616BE130
:103BF0000122FB6902FA03F37B613B681B687A6967
:103C000013403B613A697B699A4240F05A813B68B4
:103C10005B6803F00303012B05D03B685B6803F08E
:103C20000303022B30D17B689B68BB61FB695B009F
:103C3000032202FA03F3DB43BA691340BB613B681A
:103C4000DA68FB695B0002FA03F3BA691343BB61EC
:103C50007B68BA699A607B685B68BB610122FB691B
:103C600002FA03F3DB43BA691340BB613B685B684C
:103C70001B0903F00102FB6902FA03F3BA6913435B
:103C8000BB617B68BA695A603B685B6803F00303F9
:103C9000032B17D07B68DB68BB61FB695B000322E9
:103CA00002FA03F3DB43BA691340BB613B689A68CD
:103CB000FB695B0002FA03F3BA691343BB617B68DB
:103CC000BA69DA603B685B6803F00303022B23D117
:103CD000FB69DA087B68083253F82230BB61FB6964
:103CE00003F007039B000F2202FA03F3DB43BA69D8
:103CF0001340BB613B681A69FB6903F007039B0033
:103D000002FA03F3BA691343BB61FB69DA087B6803
:103D10000832B96943F822107B681B68BB61FB69F4
:103D20005B00032202FA03F3DB43BA691340BB6171
:103D30003B685B6803F00302FB695B0002FA03F374
:103D4000BA691343BB617B68BA691A603B685B68F8
:103D500003F44033002B00F0B4800023FB60604B81
:103D60005B6C5F4A43F4804353645D4B5B6C03F4CC
:103D70008043FB60FB685B4AFB699B08023352F897
:103D80002330BB61FB6903F003039B000F2202FA9F
:103D900003F3DB43BA691340BB617B68524A934229
:103DA0002BD07B68514A934225D07B68504A93427E
:103DB0001FD07B684F4A934219D07B684E4A93428A
:103DC00013D07B684D4A93420DD07B684C4A934296
:103DD00007D07B684B4A934201D107230EE00823AA
:103DE0000CE006230AE0052308E0042306E0032391
:103DF00004E0022302E0012300E00023FA6902F05C
:103E0000030292009340BA691343BB613549FB69D1
:103E10009B080233BA6941F823203B4B9B68BB6186
:103E20003B69DB43BA691340BB613B685B6803F4E1
:103E30008013002B03D0BA693B691343BB61324A3C
:103E4000BB699360304BDB68BB613B69DB43BA699C
:103E50001340BB613B685B6803F40013002B03D085
:103E6000BA693B691343BB61274ABB69D360264BE0
:103E70005B68BB613B69DB43BA691340BB613B686C
:103E80005B6803F40033002B03D0BA693B6913432A
:103E9000BB611D4ABB6953601B4B1B68BB613B691F
:103EA000DB43BA691340BB613B685B6803F4803352
:103EB000002B03D0BA693B691343BB61124ABB694B
:103EC0001360FB690133FB61FB690F2B7FF690AE3A
:103ED00000BF00BF2437BD465DF8047B704700BFBC
:103EE0000038024000380140000002400004024057
:103EF00000080240000C0240001002400014024082
:103F000000180240001C0240003C014080B483B015
:103F100000AF78600B467B8013467B707B78002B6C
:103F200003D07A887B689A6103E07B881A047B68F7
:103F30009A6100BF0C37BD465DF8047B70470000F6
:103F400080B586B000AF78607B68002B01D101237B
:103F500067E27B681B6803F00103002B75D0884B78
:103F60009B6803F00C03042B0CD0854B9B6803F07B
:103F70000C03082B12D1824B5B6803F48003B3F56A
:103F8000800F0BD17E4B1B6803F40033002B5BD0FA
:103F90007B685B68002B57D1012342E27B685B683A
:103FA000B3F5803F06D1764B1B68754A43F48033E6
:103FB00013601DE07B685B68B3F5A02F0CD1704BDC
:103FC0001B686F4A43F4802313606D4B1B686C4A77
:103FD00043F4803313600BE0694B1B68684A23F499
:103FE00080331360664B1B68654A23F4802313609B
:103FF0007B685B68002B13D0FDF730FE386108E06A
:10400000FDF72CFE02463B69D31A642B01D903232A
:1040100007E25B4B1B6803F40033002BF0D014E085
:10402000FDF71CFE386108E0FDF718FE02463B690B
:10403000D31A642B01D90323F3E1514B1B6803F41A
:104040000033002BF0D100E000BF7B681B6803F059
:104050000203002B63D04A4B9B6803F00C03002B38
:104060000BD0474B9B6803F00C03082B1CD1444B2F
:104070005B6803F48003002B16D1414B1B6803F0EF
:104080000203002B05D07B68DB68012B01D00123E4
:10409000C7E13B4B1B6823F0F8027B681B69DB0020
:1040A000374913430B603AE07B68DB68002B20D074
:1040B000344B01221A60FDF7D1FD386108E0FDF7AD
:1040C000CDFD02463B69D31A022B01D90323A8E197
:1040D0002B4B1B6803F00203002BF0D0284B1B680E
:1040E00023F0F8027B681B69DB00254913430B6052
:1040F00015E0244B00221A60FDF7B0FD386108E09E
:10410000FDF7ACFD02463B69D31A022B01D903230C
:1041100087E11B4B1B6803F00203002BF0D17B6887
:104120001B6803F00803002B36D07B685B69002B0B
:1041300016D0154B01221A60FDF790FD386108E09A
:10414000FDF78CFD02463B69D31A022B01D90323EC
:1041500067E10B4B5B6F03F00203002BF0D01BE019
:10416000094B00221A60FDF779FD38610EE0FDF77A
:1041700075FD02463B69D31A022B07D9032350E190
:104180000038024000004742800E4742884B5B6F78
:1041900003F00203002BEAD17B681B6803F00403E1
:1041A000002B00F097800023FB75814B1B6C03F004
:1041B0008053002B0FD10023BB607D4B1B6C7C4ACE
:1041C00043F0805313647A4B1B6C03F08053BB6045
:1041D000BB680123FB75774B1B6803F48073002BCE
:1041E00018D1744B1B68734A43F480731360FDF756
:1041F00035FD386108E0FDF731FD02463B69D31A11
:10420000022B01D903230CE16A4B1B6803F4807372
:10421000002BF0D07B689B68012B06D1644B1B6F91
:10422000634A43F0010313671CE07B689B68052B1E
:104230000CD15F4B1B6F5E4A43F0040313675C4B6A
:104240001B6F5B4A43F0010313670BE0584B1B6F76
:10425000574A23F001031367554B1B6F544A23F051
:10426000040313677B689B68002B15D0FDF7F6FCF1
:1042700038610AE0FDF7F2FC02463B69D31A41F2CD
:104280008832934201D90323CBE0494B1B6F03F0E3
:104290000203002BEED014E0FDF7E0FC38610AE0E9
:1042A000FDF7DCFC02463B69D31A41F288329342A7
:1042B00001D90323B5E03E4B1B6F03F00203002B33
:1042C000EED1FB7D012B05D1394B1B6C384A23F015
:1042D000805313647B689B69002B00F0A180344BF2
:1042E0009B6803F00C03082B5CD07B689B69022B56
:1042F00041D1314B00221A60FDF7B0FC386108E073
:10430000FDF7ACFC02463B69D31A022B01D903230B
:1043100087E0274B1B6803F00073002BF0D17B680C
:10432000DA697B681B6A1A437B685B6A9B011A43E4
:104330007B689B6A5B08013B1B041A437B68DB6A52
:104340001B061B4913434B601B4B01221A60FDF7F0
:1043500085FC386108E0FDF781FC02463B69D31A11
:10436000022B01D903235CE0114B1B6803F000739F
:10437000002BF0D054E0104B00221A60FDF76EFCC9
:10438000386108E0FDF76AFC02463B69D31A022B4C
:1043900001D9032345E0064B1B6803F00073002B93
:1043A000F0D13DE07B689B69012B07D1012338E008
:1043B0000038024000700040600047421B4B5B68C1
:1043C000FB607B689B69012B28D0FB6803F48002AB
:1043D0007B68DB699A4221D1FB6803F03F027B686E
:1043E0001B6A9A421AD1FA6847F6C07313407A687A
:1043F000526A9201934211D1FB6803F440327B6808
:104400009B6A5B08013B1B049A4207D1FB6803F0DF
:1044100070627B68DB6A1B069A4201D0012300E0D0
:10442000002318461837BD4680BD00BF0038024043
:1044300080B584B000AF786039607B68002B01D113
:104440000123CCE0684B1B6803F007033A689A42EB
:104450000CD9654B3A68D2B21A70634B1B6803F0F3
:1044600007033A689A4201D00123B8E07B681B68D1
:1044700003F00203002B20D07B681B6803F00403C9
:10448000002B05D0594B9B68584A43F4E053936086
:104490007B681B6803F00803002B05D0534B9B6817
:1044A000524A43F460439360504B9B6823F0F00200
:1044B0007B689B684D4913438B607B681B6803F0E6
:1044C0000103002B44D07B685B68012B07D1474B6D
:1044D0001B6803F40033002B19D101237FE07B68B4
:1044E0005B68022B03D07B685B68032B07D13F4BD3
:1044F0001B6803F00073002B09D101236FE03B4BD5
:104500001B6803F00203002B01D1012367E0374B46
:104510009B6823F003027B685B68344913438B601C
:10452000FDF79CFBF8600AE0FDF798FB0246FB688C
:10453000D31A41F28832934201D903234FE02B4B27
:104540009B6803F00C027B685B689B009A42EBD18E
:10455000254B1B6803F007033A689A420CD2224BA2
:104560003A68D2B21A70204B1B6803F007033A680E
:104570009A4201D0012332E07B681B6803F00403F8
:10458000002B08D0194B9B6823F4E0527B68DB6852
:10459000164913438B607B681B6803F00803002BEC
:1045A00009D0124B9B6823F460427B681B69DB00D7
:1045B0000E4913438B6000F021F802460B4B9B68B9
:1045C0001B0903F00F030A49CB5C22FA03F3094AE3
:1045D0001360094B1B681846FDF7FCFA00231846C8
:1045E0001037BD4680BD00BF003C0240003802408D
:1045F000486E000820000020240000202DE9B04F64
:1046000094B000AF00237B640023FB6400233B6471
:104610000023BB64794B9B6803F00C03082B0DD07F
:10462000082B00F2E180002B02D0042B03D0DBE04A
:10463000734BBB64DBE0734BBB64D8E06F4B5B68D0
:1046400003F03F037B646D4B5B6803F48003002B36
:1046500063D06A4B5B689B090022BB63FA63BB6B48
:10466000C3F308033B6300237B63D7E90C45224671
:104670002B464FF000004FF00001590141EAD26192
:10468000500102460B462146511A3961294663EB17
:1046900001037B614FF000024FF00003D7E904AB48
:1046A00059468B01514643EA916351468A0151466E
:1046B000B2EB0108594663EB01094FF000024FF0DD
:1046C00000034FEAC90343EA58734FEAC802904611
:1046D0009946234618EB0303BB602B4649EB0303C3
:1046E000FB604FF000024FF00003D7E90245294676
:1046F0004B02214643EAD15321464A02104619464D
:104700007B6C0022BB62FA62D7E90A23FCF79EF9B0
:1047100002460B461346FB6458E0384B5B689B0926
:10472000002218461146C0F308033B6200237B6257
:10473000D7E9088942464B464FF000004FF0000190
:10474000590141EAD261500102460B464146B2EBA3
:10475000010A494663EB010B4FF000024FF00003E2
:104760004FEA8B1343EA9A634FEA8A12B2EB0A04C8
:1047700063EB0B054FF000024FF00003EB0043EA40
:104780005473E20014461D464346E3183B604B4613
:1047900045EB03037B604FF000024FF00003D7E9C5
:1047A000004529468B02214643EA915321468A025D
:1047B000104619467B6C0022BB61FA61D7E90623DB
:1047C000FCF744F902460B461346FB640B4B5B684F
:1047D0001B0C03F0030301335B003B64FA6C3B6C7E
:1047E000B2FBF3F3BB6402E0054BBB6400BFBB6CE0
:1047F00018465037BD46BDE8B08F00BF00380240B4
:104800000024F40000127A0080B400AF034B1B6850
:104810001846BD465DF8047B704700BF20000020AD
:1048200080B500AFFFF7F0FF0246054B9B689B0A7F
:1048300003F007030349CB5C22FA03F3184680BD5B
:1048400000380240586E000880B500AFFFF7DCFF6B
:104850000246054B9B685B0B03F007030349CB5CE7
:1048600022FA03F3184680BD00380240586E000853
:1048700080B582B000AF78607B68002B01D1012346
:1048800041E07B6893F83D30DBB2002B06D17B68BA
:10489000002283F83C207868FCF794FF7B680222B2
:1048A00083F83D207B681A687B68043319461046FC
:1048B00000F0D8FA7B68012283F846207B68012249
:1048C00083F83E207B68012283F83F207B68012229
:1048D00083F840207B68012283F841207B68012215
:1048E00083F842207B68012283F843207B68012201
:1048F00083F844207B68012283F845207B680122ED
:1049000083F83D20002318460837BD4680BD80B59A
:1049100082B000AF78607B68002B01D1012341E0B9
:104920007B6893F83D30DBB2002B06D17B68002218
:1049300083F83C20786800F039F87B68022283F81D
:104940003D207B681A687B6804331946104600F0E6
:1049500089FA7B68012283F846207B68012283F86C
:104960003E207B68012283F83F207B68012283F888
:1049700040207B68012283F841207B68012283F874
:1049800042207B68012283F843207B68012283F860
:1049900044207B68012283F845207B68012283F84C
:1049A0003D20002318460837BD4680BD80B483B043
:1049B00000AF786000BF0C37BD465DF8047B7047E0
:1049C00080B584B000AF786039603B68002B09D1B6
:1049D0007B6893F83E30DBB2012B14BF0123002328
:1049E000DBB222E03B68042B09D17B6893F83F30AF
:1049F000DBB2012B14BF01230023DBB215E03B68BF
:104A0000082B09D17B6893F84030DBB2012B14BF2F
:104A100001230023DBB208E07B6893F84130DBB26E
:104A2000012B14BF01230023DBB2002B01D0012393
:104A30007CE03B68002B04D17B68022283F83E2097
:104A400013E03B68042B04D17B68022283F83F20EB
:104A50000BE03B68082B04D17B68022283F84020DE
:104A600003E07B68022283F841207B681B680122F7
:104A70003968184600F0E0FC7B681B682D4A9342B9
:104A800004D07B681B682C4A934201D1012300E0CB
:104A90000023002B07D07B681B685A6C7B681B685F
:104AA00042F400425A647B681B68224A934222D037
:104AB0007B681B68B3F1804F1DD07B681B681F4A61
:104AC000934218D07B681B681D4A934213D07B68C1
:104AD0001B681C4A93420ED07B681B68164A93429F
:104AE00009D07B681B68184A934204D07B681B6816
:104AF000164A934211D17B681B689B6803F0070339
:104B0000FB60FB68062B10D07B681B681A687B680B
:104B10001B6842F001021A6007E07B681B681A6894
:104B20007B681B6842F001021A60002318461037A8
:104B3000BD4680BD0000014000040140000400406B
:104B400000080040000C00400040014000180040F8
:104B500080B586B000AFF860B9607A600023FB755D
:104B6000FB6893F83C30012B01D10223AEE0FB68D7
:104B7000012283F83C207B680C2B00F29F8001A26D
:104B800052F823F0B94B0008BD4C0008BD4C00089A
:104B9000BD4C0008F94B0008BD4C0008BD4C000896
:104BA000BD4C00083B4C0008BD4C0008BD4C000843
:104BB000BD4C00087B4C0008FB681B68B9681846B0
:104BC00000F0F0F9FB681B689A69FB681B6842F00B
:104BD00008029A61FB681B689A69FB681B6822F0EF
:104BE00004029A61FB681B689969BB681A69FB68D3
:104BF0001B680A439A6164E0FB681B68B968184641
:104C000000F040FAFB681B689A69FB681B6842F475
:104C100000629A61FB681B689A69FB681B6822F452
:104C200080629A61FB681B689969BB681B691A02FC
:104C3000FB681B680A439A6143E0FB681B68B9681C
:104C4000184600F095FAFB681B68DA69FB681B6878
:104C500042F00802DA61FB681B68DA69FB681B68CE
:104C600022F00402DA61FB681B68D969BB681A6923
:104C7000FB681B680A43DA6123E0FB681B68B968BC
:104C8000184600F0E9FAFB681B68DA69FB681B68E4
:104C900042F40062DA61FB681B68DA69FB681B6832
:104CA00022F48062DA61FB681B68D969BB681B6902
:104CB0001A02FB681B680A43DA6102E00123FB75F4
:104CC00000BFFB68002283F83C20FB7D18461837A4
:104CD000BD4680BD80B584B000AF786039600023E8
:104CE000FB737B6893F83C30012B01D10223B4E0C5
:104CF0007B68012283F83C207B68022283F83D20F8
:104D00007B681B689B68BB60BB6823F07703BB6054
:104D1000BB6823F47F43BB607B681B68BA689A60FA
:104D20003B681B68B3F5005F3ED0B3F5005F00F24F
:104D30008780B3F5805F00F08680B3F5805F7FD811
:104D4000702B1AD0702B7BD8602B50D0602B77D86B
:104D5000502B3CD0502B73D8402B58D0402B6FD8C1
:104D6000302B64D0302B6BD8202B60D0202B67D811
:104D7000002B5CD0102B5AD062E07B6818683B682F
:104D800099683B685A683B68DB6800F035FB7B68D4
:104D90001B689B68BB60BB6843F07703BB607B68A4
:104DA0001B68BA689A604FE07B6818683B6899682E
:104DB0003B685A683B68DB6800F01EFB7B681B6839
:104DC0009A687B681B6842F480429A603CE07B688A
:104DD00018683B6859683B68DB681A4600F092FA2D
:104DE0007B681B685021184600F0EBFA2CE07B68CA
:104DF00018683B6859683B68DB681A4600F0B1FAEE
:104E00007B681B686021184600F0DBFA1CE07B68B9
:104E100018683B6859683B68DB681A4600F072FA0C
:104E20007B681B684021184600F0CBFA0CE07B68D9
:104E30001A683B681B681946104600F0C2FA03E086
:104E40000123FB7300E000BF7B68012283F83D2053
:104E50007B68002283F83C20FB7B18461037BD4658
:104E600080BD000080B485B000AF786039607B6899
:104E70001B68FB607B68404A934213D07B68B3F1A8
:104E8000804F0FD07B683D4A93420BD07B683C4AF1
:104E9000934207D07B683B4A934203D07B683A4AEF
:104EA000934208D1FB6823F07003FB603B685B68AA
:104EB000FA681343FB607B682F4A93422BD07B68D0
:104EC000B3F1804F27D07B682C4A934223D07B6874
:104ED0002B4A93421FD07B682A4A93421BD07B689F
:104EE000294A934217D07B68284A934213D07B68A3
:104EF000274A93420FD07B68264A93420BD07B68A7
:104F0000254A934207D07B68244A934203D07B68AA
:104F1000234A934208D1FB6823F44073FB603B684B
:104F2000DB68FA681343FB60FB6823F080023B6890
:104F30005B691343FB607B68FA681A603B689A6898
:104F40007B68DA623B681A687B689A627B680A4A07
:104F5000934203D07B680C4A934203D13B681A69A1
:104F60007B681A637B6801225A6100BF1437BD4613
:104F70005DF8047B704700BF000001400004004062
:104F800000080040000C00400004014000400140C7
:104F9000004401400048014000180040001C00404F
:104FA0000020004080B487B000AF786039607B6833
:104FB0001B6A23F001027B681A627B681B6A7B61B3
:104FC0007B685B683B617B689B69FB60FB6823F0E7
:104FD0007003FB60FB6823F00303FB603B681B6806
:104FE000FA681343FB607B6923F002037B613B6833
:104FF0009B687A6913437B617B68204A934203D0A4
:105000007B681F4A93420CD17B6923F008037B61C4
:105010003B68DB687A6913437B617B6923F0040397
:105020007B617B68154A934203D07B68144A9342A4
:1050300011D13B6923F480733B613B6923F4007316
:105040003B613B685B693A6913433B613B689B6921
:105050003A6913433B617B683A695A607B68FA6836
:105060009A613B685A687B685A637B687A691A62FE
:1050700000BF1C37BD465DF8047B7047000001404F
:105080000004014080B487B000AF786039607B686D
:105090001B6A23F010027B681A627B681B6A7B61C3
:1050A0007B685B683B617B689B69FB60FB6823F402
:1050B000E043FB60FB6823F44073FB603B681B68C4
:1050C0001B02FA681343FB607B6923F020037B61BA
:1050D0003B689B681B017A6913437B617B68224AAA
:1050E000934203D07B68214A93420DD17B6923F020
:1050F00080037B613B68DB681B017A6913437B613A
:105100007B6923F040037B617B68174A934203D09D
:105110007B68164A934213D13B6923F480633B6159
:105120003B6923F400633B613B685B699B003A6920
:1051300013433B613B689B699B003A6913433B61A6
:105140007B683A695A607B68FA689A613B685A687A
:105150007B689A637B687A691A6200BF1C37BD4618
:105160005DF8047B704700BF00000140000401406F
:1051700080B487B000AF786039607B681B6A23F425
:1051800080727B681A627B681B6A7B617B685B68E4
:105190003B617B68DB69FB60FB6823F07003FB60AD
:1051A000FB6823F00303FB603B681B68FA6813434A
:1051B000FB607B6923F400737B613B689B681B0287
:1051C0007A6913437B617B68214A934203D07B68F1
:1051D000204A93420DD17B6923F400637B613B68D5
:1051E000DB681B027A6913437B617B6923F480636C
:1051F0007B617B68164A934203D07B68154A9342D1
:1052000013D13B6923F480533B613B6923F4005382
:105210003B613B685B691B013A6913433B613B6837
:105220009B691B013A6913433B617B683A695A6089
:105230007B68FA68DA613B685A687B68DA637B6886
:105240007A691A6200BF1C37BD465DF8047B70475F
:10525000000001400004014080B487B000AF7860D6
:1052600039607B681B6A23F480527B681A627B6812
:105270001B6A3B617B685B687B617B68DB69FB6009
:10528000FB6823F4E043FB60FB6823F44073FB609E
:105290003B681B681B02FA681343FB603B6923F4FD
:1052A00000533B613B689B681B033A6913433B61B6
:1052B0007B68124A934203D07B68114A934209D11A
:1052C0007B6923F480437B613B685B699B017A695E
:1052D00013437B617B687A695A607B68FA68DA619C
:1052E0003B685A687B681A647B683A691A6200BF37
:1052F0001C37BD465DF8047B704700BF00000140CD
:105300000004014080B487B000AFF860B9607A60F3
:10531000FB681B6A7B61FB681B6A23F00102FB6868
:105320001A62FB689B693B613B6923F0F0033B61B8
:105330007B681B013A6913433B617B6923F00A03D5
:105340007B617A69BB6813437B61FB683A699A6148
:10535000FB687A691A6200BF1C37BD465DF8047BA2
:10536000704780B487B000AFF860B9607A60FB68BE
:105370001B6A23F01002FB681A62FB689B697B6161
:10538000FB681B6A3B617B6923F470437B617B682C
:105390001B037A6913437B613B6923F0A0033B61E4
:1053A000BB681B013A6913433B61FB687A699A61E8
:1053B000FB683A691A6200BF1C37BD465DF8047B82
:1053C000704780B485B000AF786039607B689B68B7
:1053D000FB60FB6823F07003FB603A68FB681343D3
:1053E00043F00703FB607B68FA689A6000BF1437DC
:1053F000BD465DF8047B704780B487B000AFF860AD
:10540000B9607A603B60FB689B687B617B6923F4D1
:105410007F437B613B681A027B681A43BB68134376
:105420007A6913437B61FB687A699A6000BF1C3715
:10543000BD465DF8047B704780B487B000AFF8606C
:10544000B9607A60BB6803F01F03012202FA03F31C
:105450007B61FB681A6A7B69DB431A40FB681A624E
:10546000FB681A6ABB6803F01F03796801FA03F34B
:105470001A43FB681A6200BF1C37BD465DF8047B07
:105480007047000080B485B000AF786039607B68F9
:1054900093F83C30012B01D102235AE07B680122B2
:1054A00083F83C207B68022283F83D207B681B68E0
:1054B0005B68FB607B681B689B68BB60FB6823F0D4
:1054C0007003FB603B681B68FA681343FB607B68F2
:1054D0001B68FA685A607B681B68214A934222D095
:1054E0007B681B68B3F1804F1DD07B681B681D4A29
:1054F000934218D07B681B681B4A934213D07B6889
:105500001B681A4A93420ED07B681B68184A934264
:1055100009D07B681B68174A934204D07B681B68DC
:10552000154A93420CD1BB6823F08003BB603B68F3
:105530005B68BA681343BB607B681B68BA689A6093
:105540007B68012283F83D207B68002283F83C20A1
:10555000002318461437BD465DF8047B704700BF32
:10556000000001400004004000080040000C004022
:1055700000040140004001400018004080B582B0A6
:1055800000AF78607B68002B01D101233FE07B688E
:1055900093F83D30DBB2002B06D17B68002283F804
:1055A0003C207868FCF766F97B68242283F83D206C
:1055B0007B681B68DA687B681B6822F40052DA603B
:1055C000786800F029F97B681B681A697B681B689A
:1055D00022F490421A617B681B685A697B681B68D9
:1055E00022F02A025A617B681B68DA687B681B68B4
:1055F00042F40052DA607B6800221A647B68202241
:1056000083F83D207B68202283F83E200023184643
:105610000837BD4680BD80B58AB002AFF860B9607A
:105620003B601346FB8000237B61FB6893F83D30B1
:10563000DBB2202B7CD1BB68002B02D0FB88002B77
:1056400001D1012375E0FB6893F83C30012B01D1B7
:1056500002236EE0FB68012283F83C20FB680022F5
:105660001A64FB68212283F83D20FCF7F7FA786181
:10567000FB68FA889A84FB68FA88DA84FB689B687E
:10568000B3F5805F08D1FB681B69002B04D10023B0
:10569000FB61BB68BB6103E0BB68FB610023BB61CE
:1056A000FB68002283F83C202AE03B6800937B697A
:1056B00000228021F86800F040F80346002B01D05A
:1056C000032336E0FB69002B0BD1BB691B881A460C
:1056D000FB681B68C2F308025A60BB690233BB61F6
:1056E00007E0FB691A78FB681B685A60FB690133A5
:1056F000FB61FB68DB8C9BB2013B9AB2FB68DA84EE
:10570000FB68DB8C9BB2002BCFD13B6800937B699D
:1057100000224021F86800F010F80346002B01D069
:10572000032306E0FB68202283F83D20002300E0ED
:10573000022318462037BD4680BD80B590B000AF2B
:10574000F860B9603B601346FB7150E0BB6CB3F18D
:10575000FF3F4CD0BB6C002B07D0FCF77FFA024612
:105760003B68D31ABA6C9A4241D2FB681B680C336F
:10577000BB62BB6A53E8003F7B627B6A23F4D07351
:10578000FB63FB681B680C33FA6B7A633B63396B12
:105790007A6B41E80023FB62FB6A002BE5D1FB68D2
:1057A0001B6814337B617B6953E8003F3B613B69B5
:1057B00023F00103BB63FB681B681433BA6B3A62C6
:1057C000FB61F9693A6A41E80023BB61BB69002BC0
:1057D000E5D1FB68202283F83D20FB68202283F876
:1057E0003E20FB68002283F83C2003230FE0FB6887
:1057F0001B681A68BB681340BA689A420CBF012341
:105800000023DBB21A46FB799A429FD00023184648
:105810004037BD4680BD00002DE9B04FC0B000AF9D
:10582000C7F8F400D7F8F4301B681B6923F4405024
:10583000D7F8F430D968D7F8F4301A6840EA010391
:105840001361D7F8F4309A68D7F8F4301B691A431B
:10585000D7F8F4305B691A43D7F8F430DB691343A7
:10586000C7F8F830D7F8F4301B68DB6823F416412A
:1058700021F00C01D7F8F4301A68D7F8F8300B4350
:10588000D360D7F8F4301B685B6923F44070D7F815
:10589000F4309969D7F8F4301A6840EA010353618B
:1058A000D7F8F4301A688F4B9A4205D0D7F8F43005
:1058B0001A688D4B9A4204D1FEF7C6FFC7F8FC0068
:1058C00003E0FEF7ADFFC7F8FC00D7F8F430DB6962
:1058D000B3F5004F40F00C81D7F8FC300022C7F838
:1058E000E830C7F8EC20D7E93A4522462B46911814
:1058F000B9655B41FB65D7E91623214612EB010828
:10590000294643EB01094FF000024FF000034FEA34
:10591000C90343EA58734FEAC802904699462346A2
:1059200018EB0303C7F8E0302B4649EB0303C7F835
:10593000E430D7F8F4305B680022C7F8D830C7F8F5
:10594000DC20D7E936120B46DB183B65134642EBE9
:1059500003037B65D7E91423D7E93801FBF776F811
:1059600002460B46614BA3FB02235B091C01D7F8DF
:10597000FC300022C7F8D030C7F8D420D7E93489EA
:1059800042464B469118B9645B41FB64D7E9122348
:10599000414612EB010A494643EB010B4FF000026E
:1059A0004FF000034FEACB0343EA5A734FEACA02AF
:1059B00092469B4643461AEB0303C7F8C8304B4652
:1059C0004BEB0303C7F8CC30D7F8F4305B68002208
:1059D000C7F8C030C7F8C420D7E930120B46DB182F
:1059E0003B64134642EB03037B64D7E91023D7E9FA
:1059F0003201FBF72BF802460B4611463B4BA3FB4B
:105A000001235B09642202FB03F3CB1ADB0003F1E1
:105A10003202364BA3FB02235B095B0003F4F873ED
:105A20001C44D7F8FC300022C7F8B830C7F8BC20B7
:105A3000D7E92E8942464B469118B9635B41FB6317
:105A4000D7E90E2341465118396349464B417B63E0
:105A50004FF000024FF00003D7E90CAB5946CB00E2
:105A6000514643EA51735146CA001046194603464F
:105A700042469B18C7F8B0304B460A4642EB030338
:105A8000C7F8B430D7F8F4305B680022C7F8A83004
:105A9000C7F8AC20D7E92A120B46DB18BB621346C5
:105AA00042EB0303FB62D7E90A23D7E92C01FAF79B
:105AB000CDFF02460B460D4BA3FB02135B0964218D
:105AC00001FB03F3D31ADB003233084AA2FB0323A2
:105AD0005B0903F00702D7F8F4301B6822449A6090
